S01300006E78705F636F6E746573742E737265635C
S3150000000000000320D904000021050000250500009A
S315000000101D0500001D0500001D0500000000000074
S31500000020000000000000000000000000290500009C
S315000000301D050000000000002D0500003105000030
S3150000004079820100C1820100098301005183010008
S3150000005099830100E1830100298401007184010074
S31500000060B9840100018501004985010091850100DF
S31500000070D98501002186010069860100B18601004B
S31500000080750500001D0500001D0500001D0500008A
S315000000901D0500001D0500001D0500001D050000D2
S315000000A0790500007D05000081050000850500003A
S315000000B0890500008D0500009105000095050000EA
S315000000C0990500009D050000A10500001D05000022
S315000000D01D0500001D0500001D0500001D05000092
S315000000E01D0500001D0500001D0500001D05000082
S315000000F05DF700001D0500001D0500001D05000040
S3150000010085A901001D0500002DF700001D05000052
S315000001101D0500001D0500001D0500001D05000051
S315000001201D0500001D0500001D0500001D05000041
S315000001306DA90100D5D600001D0500001D050000B3
S315000001401D050000A50500001D0500001D05000099
S315000001501D0500001D050000A90500001D05000085
S315000001601D0500001D050000AD0500001D05000071
S315000001701D0500001D0500001D0500001D050000F1
S315000001801D050000B10500001D0500001D0500004D
S315000001901D0500001D0500001D0500001D050000D1
S315000001A01D0500001D0500001D050000B505000029
S315000001B01D0500001D0500001D0500001D050000B1
S315000001C01D0500001D0500001D0500001D050000A1
S315000001D0B90500001D0500001D0500001D050000F5
S315000001E01D0500001D0500001D0500001D05000081
S315000001F01D0500001D0500001D0500001D05000071
S315000002001D0500001D0500001D0500001D05000060
S315000002101D0500001D0500001D0500001D05000050
S315000002201D0500001D0500001D0500001D05000040
S315000002301D0500001D0500001D0500001D05000030
S315000002401D0500001D0500001D0500001D05000020
S315000002501D0500001D0500001D0500001D05000010
S315000002601D0500001D0500001D0500001D05000000
S315000002701D0500001D0500001D0500001D050000F0
S315000002801D0500001D0500001D0500001D050000E0
S315000002901D0500001D0500001D0500001D050000D0
S315000002A01D0500001D0500001D0500001D050000C0
S315000002B01D0500001D0500001D0500001D050000B0
S315000002C01D0500001D0500001D0500001D050000A0
S315000002D01D0500001D0500001D0500001D05000090
S315000002E01D0500001D0500001D0500001D05000080
S315000002F01D0500001D0500001D0500001D05000070
S315000003001D0500001D0500001D0500001D0500005F
S315000003101D0500001D0500001D0500001D0500004F
S315000003201D0500001D0500001D0500001D0500003F
S315000003301D0500001D0500001D0500001D0500002F
S315000003401D0500001D0500001D0500001D0500001F
S315000003501D0500001D0500001D0500001D0500000F
S315000003601D0500001D0500001D0500001D050000FF
S315000003701D0500001D0500001D0500001D050000EF
S315000003801D0500001D0500001D0500001D050000DF
S315000003901D0500001D0500001D0500001D050000CF
S315000003A01D0500001D0500001D0500001D050000BF
S315000003B01D0500001D0500001D0500001D050000AF
S31500000400FFFFFFFFFFFFFFFFFFFFFFFFFEFDFFFFF9
S3150000041010B5054C237833B9044B13B10448AFF338
S3150000042000800123237010BD5C01FF1F0000000047
S315000004307833020008B5064B1BB106480649AFF3F0
S3150000044000800648036813B1054B03B1984708BD01
S3150000045000000000783302006001FF1F5801FF1FF3
S3150000046000000000154B002B08BF134B9D46A3F55B
S31500000470803A00218B460F461348144A121A1AF086
S3150000048086FD0F4B002B00D098470E4B002B00D05B
S3150000049098470020002104000D000D48002802D0D6
S315000004A00C48AFF300801AF009FD2000290015F072
S315000004B007FF1AF0EFFC00BF000008000000032051
S315000004C000000000000000005C01FF1F08DCFF1FA9
S315000004D0000000000000000072B6094809490160EA
S315000004E00948804709490A4A0A4B9A42BEBF51F851
S315000004F0040B42F8040BF8E762B607488047000091
S3150000050008ED00E000000000398D0000C440020044
S315000005100000FF1F5C01FF1F65040000FFF7FEBF20
S3150000052026480047264800472648004726480047F1
S3150000053026480047264800472648004726480047E1
S3150000054026480047264800472648004726480047D1
S3150000055026480047264800472648004726480047C1
S3150000056026480047264800472648004726480047B1
S3150000057026480047264800472648004726480047A1
S315000005802648004726480047264800472648004791
S315000005902648004726480047264800472648004781
S315000005A02648004726480047264800472648004771
S315000005B026480047264800472648004721050000F0
S315000005C025050000290500002D0500003105000065
S315000005D01D0500001D0500001D0500001D0500008D
S315000005E01D0500001D0500001D0500001D0500007D
S315000005F01D0500001D0500001D0500001D0500006D
S315000006001D0500001D0500001D0500001D0500005C
S315000006101D050000758A0100918A0100ED7F010029
S3150000062029800100C9980100059901006190010027
S3150000063081900100A1900100C1900100E1900100AC
S31500000640658001001D880100AD8A0100F59E01004C
S31500000650C98A01001D05000010F8012B11F8013BA5
S31500000660012A28BF9A42F7D0D01A704781F000417C
S3150000067002E000BF83F0004330B54FEA41044FEA81
S31500000680430594EA050F08BF90EA020F1FBF54EA1C
S31500000690000C55EA020C7FEA645C7FEA655C00F0B8
S315000006A0E2804FEA5454D4EB5555B8BF6D420CDD89
S315000006B02C4480EA020281EA030382EA000083EA0C
S315000006C0010180EA020281EA0303362D88BF30BDAC
S315000006D011F0004F4FEA01314FF4801C4CEA113102
S315000006E002D0404261EB410113F0004F4FEA033361
S315000006F04CEA133302D0524263EB430394EA050FEC
S3150000070000F0A780A4F10104D5F1200E0DDB02FA5A
S315000007100EFC22FA05F2801841F1000103FA0EF2EE
S31500000720801843FA05F359410EE0A5F120050EF1B4
S31500000730200E012A03FA0EFC28BF4CF0020C43FAE5
S3150000074005F3C01851EBE37101F0004507D54FF0F2
S31500000750000EDCF1000C7EEB00006EEB0101B1F542
S31500000760801F1BD3B1F5001F0CD349085FEA300088
S315000007704FEA3C0C04F101044FEA445212F5800F93
S3150000078080F09A80BCF1004F08BF5FEA500C50F130
S31500000790000041EB045141EA050130BD5FEA4C0C13
S315000007A0404141EB010111F4801FA4F10104E9D19C
S315000007B091F0000F04BF01460020B1FA81F308BF93
S315000007C02033A3F10B03B3F120020CDA0C3208DD5F
S315000007D002F1140CC2F10C0201FA0CF021FA02F13A
S315000007E00CE002F11402D8BFC2F1200C01FA02F1AA
S315000007F020FA0CFCDCBF41EA0C019040E41AA2BFCF
S3150000080001EB0451294330BD6FEA04041F3C1CDA96
S315000008100C340EDC04F11404C4F1200220FA04F0B6
S3150000082001FA02F340EA030021FA04F345EA030160
S3150000083030BDC4F10C04C4F1200220FA02F001FA22
S3150000084004F340EA0300294630BD21FA04F02946A4
S3150000085030BD94F0000F83F4801306BF81F480113D
S315000008600134013D4EE77FEA645C18BF7FEA655CB0
S3150000087029D094EA050F08BF90EA020F05D054EA82
S31500000880000C04BF1946104630BD91EA030F1EBF87
S315000008900021002030BD5FEA545C05D1400049418B
S315000008A028BF41F0004130BD14F580043CBF01F57E
S315000008B0801130BD01F0004545F0FE4141F4700164
S315000008C04FF0000030BD7FEA645C1ABF194610463F
S315000008D07FEA655C1CBF0B46024650EA013406BF40
S315000008E052EA033591EA030F41F4002130BD00BFFF
S315000008F090F0000F04BF0021704730B54FF48064BC
S3150000090004F132044FF000054FF0000150E700BF3C
S3150000091090F0000F04BF0021704730B54FF480649B
S3150000092004F1320410F0004548BF40424FF0000188
S315000009303EE700BF42004FEAE2014FEA31014FEACB
S3150000094002701FBF12F07F4393F07F4F81F060511A
S31500000950704792F0000F14BF93F07F4F704730B589
S315000009604FF4607401F0004521F0004120E700BF1C
S3150000097050EA010208BF704730B54FF000050AE0A3
S3150000098050EA010208BF704730B511F0004502D5A4
S31500000990404261EB41014FF4806404F132045FEAA6
S315000009A0915C3FF4DCAE4FF003025FEADC0C18BF4B
S315000009B003325FEADC0C18BF033202EBDC02C2F141
S315000009C0200300FA03FC20FA02F001FA03FE40EAD3
S315000009D00E0021FA02F11444C1E600BF70B54FF0D3
S315000009E0FF0C4CF4E06C1CEA11541DBF1CEA1355B5
S315000009F094EA0C0F95EA0C0F00F0DEF82C4481EA1D
S31500000A00030621EA4C5123EA4C5350EA013518BF3C
S31500000A1052EA033541F4801143F4801338D0A0FB29
S31500000A2002CE4FF00005E1FB02E506F00042E0FBD6
S31500000A3003E54FF00006E1FB03569CF0000F18BFDC
S31500000A404EF0010EA4F1FF04B6F5007F64F5407484
S31500000A5004D25FEA4E0E6D4146EB060642EAC62117
S31500000A6041EA55514FEAC52040EA5E504FEACE2E84
S31500000A70B4F1FD0C88BFBCF5E06F1ED8BEF1004F87
S31500000A8008BF5FEA500E50F1000041EB045170BD03
S31500000A9006F0004646EA010140EA020081EA030147
S31500000AA0B4EB5C04C2BFD4EB0C0541EA045170BD43
S31500000AB041F480114FF0000E013C00F3AB8014F1BD
S31500000AC0360FDEBF002001F0004170BDC4F1000406
S31500000AD0203C35DA0C341BDC04F11404C4F1200587
S31500000AE000FA05F320FA04F001FA05F240EA0200E2
S31500000AF001F0004221F0004110EBD37021FA04F618
S31500000B0042EB06015EEA430E08BF20EAD37070BDD1
S31500000B10C4F10C04C4F1200500FA04F320FA05F030
S31500000B2001FA04F240EA020001F0004110EBD37032
S31500000B3041F100015EEA430E08BF20EAD37070BDA2
S31500000B40C4F1200500FA05F24EEA020E20FA04F37B
S31500000B5001FA05F243EA020321FA04F001F000412A
S31500000B6021FA04F220EA020000EBD3705EEA430E9B
S31500000B7008BF20EAD37070BD94F0000F0FD101F0CA
S31500000B800046400041EB010111F4801F08BF013C03
S31500000B90F7D041EA060195F0000F18BF704703F041
S31500000BA00046520043EB030313F4801F08BF013DC8
S31500000BB0F7D043EA0603704794EA0C0F0CEA135584
S31500000BC018BF95EA0C0F0CD050EA410618BF52EA3E
S31500000BD04306D1D181EA030101F000414FF0000044
S31500000BE070BD50EA410606BF1046194652EA430652
S31500000BF019D094EA0C0F02D150EA013613D195EAC6
S31500000C000C0F05D152EA03361CBF104619460AD10D
S31500000C1081EA030101F0004141F0FE4141F4700117
S31500000C204FF0000070BD41F0FE4141F4780170BD07
S31500000C3070B54FF0FF0C4CF4E06C1CEA11541DBF6C
S31500000C401CEA135594EA0C0F95EA0C0F00F0A7F86E
S31500000C50A4EB050481EA030E52EA03354FEA01319B
S31500000C6000F088804FEA03334FF0805545EA1313AE
S31500000C7043EA12634FEA022245EA111545EA106576
S31500000C804FEA00260EF000419D4208BF964244F10D
S31500000C90FD0404F5407402D25B084FEA3202B61A2C
S31500000CA065EB03055B084FEA32024FF480104FF400
S31500000CB0002CB6EB020E75EB030E22BFB61A754674
S31500000CC040EA0C005B084FEA3202B6EB020E75EB07
S31500000CD0030E22BFB61A754640EA5C005B084FEA6F
S31500000CE03202B6EB020E75EB030E22BFB61A75463C
S31500000CF040EA9C005B084FEA3202B6EB020E75EB47
S31500000D00030E22BFB61A754640EADC0055EA060E07
S31500000D1018D04FEA051545EA16754FEA06164FEA4A
S31500000D20C30343EA52734FEAC2025FEA1C1CC0D1F6
S31500000D3011F4801F0BD141EA00014FF000004FF083
S31500000D40004CB6E711F4801F04BF01430020B4F144
S31500000D50FD0C88BFBCF5E06F3FF6AFAEB5EB030CFC
S31500000D6004BFB6EB020C5FEA500C50F1000041EBF9
S31500000D70045170BD0EF0004E4EEA113114EB5C04C6
S31500000D80C2BFD4EB0C0541EA045170BD41F4801199
S31500000D904FF0000E013C90E645EA060E8DE60CEAA1
S31500000DA0135594EA0C0F08BF95EA0C0F3FF43BAFBE
S31500000DB094EA0C0F0AD150EA01347FF434AF95EA75
S31500000DC00C0F7FF425AF104619462CE795EA0C0F59
S31500000DD006D152EA03353FF4FDAE1046194622E726
S31500000DE050EA410618BF52EA43067FF4C5AE50EA00
S31500000DF041047FF40DAF52EA43057FF4EBAE12E7F0
S31500000E004FF0FF3C06E000BF4FF0010C02E000BFD0
S31500000E104FF0010C4DF804CD4FEA410C7FEA6C5CB3
S31500000E204FEA430C18BF7FEA6C5C1BD001B050EA56
S31500000E30410C0CBF52EA430C91EA030F02BF90EA41
S31500000E40020F0020704710F1000F91EA030F58BF00
S31500000E50994208BF90422CBFD8176FEAE37040F062
S31500000E60010070474FEA410C7FEA6C5C02D150EA00
S31500000E70013C07D14FEA430C7FEA6C5CD6D152EABB
S31500000E80033CD3D05DF8040B704700BF8446104680
S31500000E9062468C461946634600E000BF01B5FFF77F
S31500000EA0B7FF002848BF10F1000F01BD4DF808ED4F
S31500000EB0FFF7F4FF0CBF012000205DF808FB00BF20
S31500000EC04DF808EDFFF7EAFF34BF012000205DF87A
S31500000ED008FB00BF4DF808EDFFF7E0FF94BF0120C7
S31500000EE000205DF808FB00BF4DF808EDFFF7CEFFC8
S31500000EF094BF012000205DF808FB00BF4DF808ED07
S31500000F00FFF7C4FF34BF012000205DF808FB00BFD7
S31500000F104FEA410212F5001215D211D56FF478731B
S31500000F20B3EB625212D94FEAC12343F0004343EABE
S31500000F30505311F0004F23FA02F018BF4042704799
S31500000F404FF00000704750EA013005D111F0004023
S31500000F5008BF6FF0004070474FF00000704700BFB9
S31500000F604A0011D212F5001211D20DD56FF4787322
S31500000F70B3EB62520ED44FEAC12343F0004343EA77
S31500000F80505323FA02F070474FF00000704750EAC2
S31500000F90013002D14FF0FF3070474FF0000070472C
S31500000FA04FEA4102B2F1E04324BFB3F5001CDCF185
S31500000FB0FE5C0DD901F0004C4FEAC0024CEA5070BD
S31500000FC0B2F1004F40EB830008BF20F001007047EC
S31500000FD011F0804F21D113F13872BCBF01F00040EF
S31500000FE0704741F480114FEA5252C2F11802C2F121
S31500000FF0200C10FA0CF320FA02F018BF40F00100A2
S315000010004FEAC1234FEAD32303FA0CFC40EA0C0053
S3150000101023FA02F34FEA4303CCE77FEA625307D190
S3150000102050EA01331EBF4FF0FE4040F440007047C7
S3150000103001F0004040F0FE4040F40000704700BF61
S3150000104073B96AB9002908BF0028BCBF00204FF059
S315000010500041C4BF6FF000414FF0FF3001F00EB801
S3150000106082B0EC462DE9005000F056F8DDF804E0B9
S3150000107002B00CBC704700BF4BB942B9002908BF8B
S31500001080002802D04FF0FF31084600F0F7BF82B0CB
S31500001090EC462DE9005000F057F8DDF804E002B008
S315000010A00CBC704738B50022002304460D46FFF7F6
S315000010B007FF28B920462946BDE8384000F00AB89F
S315000010C0204605F1004100F005F8404261EB410180
S315000010D038BD00BF70B500220D4B04460D46FFF724
S315000010E07DFCFFF73DFF0646FFF702FC0022094B99
S315000010F0FFF774FC02460B4620462946FFF7BAFA6C
S31500001100FFF72EFF002242EA00042046314670BD5A
S315000011100000F03D0000F0412DE97043069E1446A4
S315000011201D468046894600F0ABFF04FB01F300FB39
S315000011300533A4FB00451D44B8EB040469EB050523
S31500001140C6E90045BDE870832DE97043069E144646
S31500001150804689461D4601F0DFF800FB05F504FBD5
S315000011600153A0FB04451D44B8EB040469EB0505D7
S31500001170C6E90045BDE8708303685A004CBF43F0DA
S31500001180004323F000431844704700BF2DE9F04F99
S31500001190064683B0914621B301390191884600275E
S315000011A007EB080404EBD4746410E50006EB050BAA
S315000011B05846FFF7E1FF019B8246A34205F108006E
S315000011C0304419D0FFF7D8FFCA4500F1FF3004D9E3
S315000011D0BC420BD004F1FF38E2E7484502D2671C57
S315000011E0DEE78B46584603B0BDE8F08F4FF0000BA4
S315000011F0584603B0BDE8F08FCA45E9D8F2E700BF0C
S31500001200012807D0022807D0044B00280CBF184637
S3150000121000207047024870470248704731190000A5
S31500001220391900004119000030B5274B83B0044638
S315000012308D1E002B42D0284601A9AFF3008003463D
S3150000124023B32A460199FFF7A1FF054618B3FFF716
S3150000125093FF6B68A064012B12D0002B05F10400EC
S3150000126028DBFFF789FF0023E06423650368002B72
S3150000127016DBFFF781FF00232061184603B030BD5F
S31500001280002323610523184603B030BD23610923DB
S31500001290184603B030BD09232061184603B030BD9F
S315000012A0C3F30360FFF7ACFF0028206114BF0023DF
S315000012B00923E2E70123E0642365D7E7034B0448EB
S315000012C01B1ADB100193BCE70000000094400200EB
S315000012D08C3A02000368DA0710B5044606D49B0769
S315000012E000F1480009D500F069FC2368590709D5C3
S315000012F01A070ED5DB0613D510BD00F057FC236880
S315000013005907F5D404F1D00000F060FC23681A07F1
S31500001310F0D404F5A87000F061FC2368DB06EBD47A
S3150000132004F5E870BDE8104000F09CBC03680BB102
S31500001330184470471846704709207047704700BF29
S3150000134070B504460D4608E02B6C636101202369E5
S3150000135021462A469847082808D12046296CFFF7D7
S3150000136063FF06460028EFD01CF040FC0728FBD19F
S315000013703046296CFFF7E2FF281D00F00BFC00BF8A
S315000013802DE9F0470C1D054617460FCCADF5727DCD
S3150000139003AE0FC60FCC0FC60FCC0FC694E80F00D6
S315000013A002AC4FF0000ED5F80C80D5F8189086E800
S315000013B00F002846216CC4F800E0FFF735FF002F28
S315000013C0064614BF0A27092786B1A06B2A468DE870
S315000013D0100247F0100160642B460120C047002828
S315000013E02FD130460DF5727DBDE8F087236C6B6119
S315000013F021464FF4F0727AA819F0A5FD2B6929460B
S315000014007AAA38469847889B82468DE81002394664
S31500001410636401202A462B46C04790B920467AA924
S315000014204FF4F07219F08FFDBAF1080F06D1284675
S31500001430216CFFF7F9FE09270646C5E7BAF1070F43
S3150000144004D009200DF5727DBDE8F0873046216C89
S31500001450FFF774FF03A800F09DFB00BF406C7047C8
S31500001460F0B5CB6B0B640E1D0F4604460FCEF9B0DC
S3150000147001AD0FC50FCE0FC50FCE0FC596E80F00F5
S315000014804FF0FF3685E80F00009606E023692146F7
S315000014906A4698470828054608D120461099FFF75E
S315000014A0C3FE0028F2D0092079B0F0BD6846FFF7E8
S315000014B011FF062DF7D120463946FFF741FF00BF41
S315000014C030B4DD6BC160826119461D64002230BCF8
S315000014D0FFF756BF70B5C66843690B6404460D46F0
S315000014E026B10122FFF74CFF1CF080FB0369214661
S315000014F002202A469847072807D0082803D1204605
S315000015002946FFF71DFF1CF071FB3046296CFFF7DB
S3150000151015FF281D00F03EFBC26822B1CA6B0A64A3
S315000015200022FFF72DBF9BE7704700BF08B5836811
S3150000153013B101460120984708BD00BF10B4042925
S3150000154009D8DFE801F007030803030001205DF86E
S31500001550044B70471BB102205DF8044B70470F2AFD
S31500001560F9D800EB820218465368019A1360EEE739
S3150000157000B585B00A4603AB002100930B46FFF782
S31500001580DDFF039805B05DF804FB00BF10B4042925
S3150000159009D8DFE801F007030803030001205DF81E
S315000015A0044B70471BB102205DF8044B70470F2AAD
S315000015B0F9D800EB82020198016851601846EEE7FF
S315000015C010B584B004AB0C4643F8042D00210093FB
S315000015D022460B46FFF7DAFF04B010BDF0B5D36B19
S315000015E01364151D07460E460FCDADF50F7D17ACDE
S315000015F00FC40FCD0FC40FCD0FC495E80F004FF0E9
S31500001600FF3584E80F00169510E016A8FFF7D8FFFF
S31500001610314616A8B847694616AA78B9049B082029
S315000016209847052804460AD0092807D0269968460F
S31500001630FFF7FAFD6A460C210028E6D0092416A811
S31500001640FFF748FE20460DF50F7DF0BD2DE9F04F62
S315000016500C46C96C8BB01D460E1D0B680793904651
S31500001660089600F00309002D40F089801B02032232
S3150000167007938DF825508DF82420236DB9F1020FBC
S3150000168008BFA66B13F0010342D100F00800C0B2F8
S31500001690039002933768002F3CD0022D6BD0378819
S315000016A0B6F802A00436A36C2AF0010B40460F21BF
S315000016B09B44FFF75DFF834536D827F001039B4423
S315000016C00AF0010A07F00107584547EA4A072CBF06
S315000016D000200120012F31D060D3022F20D13368A2
S315000016E023F000410191B9F1000F40F0858030B13F
S315000016F0039A002A00F08D80002900F0B080002BAC
S31500001700C0F28580019B03F1010A06EB8A06C1E758
S3150000171000210291022D49DDFFF70EFE00284BD075
S3150000172009200BB0BDE8F08F0AF0010A07F00107A7
S3150000173047EA4A07012F4FF00000CDD1B9F1000F5B
S3150000174041D1B0B196E80C00D70F9A1CE8D004F14D
S3150000175058010133069100F0AD80301DFFF7E6FD1C
S315000017603A46014606AB20461AF0A6F9002840F094
S31500001770CF8008368EE7D6F804A0083693E7022D08
S315000017803FF77BAF1A0CD7B21B0402218DF8252038
S3150000179006EB870607938DF824106EE7B9F1000F64
S315000017A002D0002840F09080043673E7404607A92F
S315000017B000F0F0FA0028B3D1029A002A59D1082085
S315000017C00BB0BDE8F08F40460D21276AFFF7D0FE2B
S315000017D08742CED1A36A9E42CBD13046FFF7CCFCDE
S315000017E00F2102464046FFF7EBFE40462246002107
S315000017F0FFF7E6FE072094E740460D21276AFFF72C
S31500001800B7FE874245D03368002BBFF67BAF043660
S3150000181078E7019919B304F1580CCDF810900595A5
S31500001820371DDDF80CB0DDF80490654602E0CA45C8
S3150000183015D0D34638460695FFF778FD00220146B7
S3150000184006AB20461AF038F90BF1010A04370028D6
S31500001850EDD0019BDDF81090059D5B45D3D1404648
S315000018600D21FFF785FE069B2062A66263620620B5
S3150000187057E70F214046FFF77BFE0E210246404602
S31500001880FFF79EFE40460F21284AFFF799FE0720E4
S3150000189047E7A36A9E42B6D104220027B3180199EE
S315000018A0A162E762226363633368BB421FDB0122E6
S315000018B0029227E740460D21FFF75AFE2062069B5B
S315000018C06362A66206202CE73046FFF755FC043615
S315000018D00546A66320461AF04DF900283FF420AFCE
S315000018E040462A460F21FFF76BFE072019E7481CE2
S315000018F006EB8000FFF740FC0F2102464046FFF74B
S315000019005FFE404639462246FFF75AFE072008E7A3
S3150000191007460D214046FFF72BFE022F2062CED14F
S315000019202346069A43F82C2F6362CAE77DC8010056
S315000019300023FFF78BBE00BF0123FFF787BE00BF62
S315000019400223FFF783BE00BF2DE9F0410446C4B071
S3150000195004290BD8DFE801F059030A300E00012BE9
S315000019604FEA124596B266D0052B6BD0022044B0E2
S31500001970BDE8F081002BF9D1102AF7D82368D906E3
S3150000198000F1D38022AE3046019200F075F9A56BC6
S31500001990019A0023012000FA03F1114203D02968BD
S315000019A046F8231004350133042BF4D13046A563E1
S315000019B000F058F90020DAE7032BD7D1150C97B2BF
S315000019C07B19102BD2D823681E0700F1BF8022AEE8
S315000019D0304600F025F9D4F838E07F0006EBC50064
S315000019E07B1E72465FB1CEEB0000AEF10402013BF6
S315000019F052F8041F81505D1CF9D10EEB8702304668
S31500001A00A26300F0EBF80020B1E7002BAED1A56B86
S31500001A1096B2012000FA03F1314204D004EB8307A9
S31500001A202968796004350133102BF3D112F4005084
S31500001A3075D1A5639BE77219102A97D80F2D95D8F3
S31500001A40002708E07719202F90D80F2D69D937463F
S31500001A5046B30F2D11D82268D0070ED522F001010A
S31500001A60052B2160204600F08B8022F0030240F80F
S31500001A70482B019300F09EF8019B17B1226851078D
S31500001A806CD4012B74D00F2D04D822A8019300F03A
S31500001A9099F8019B37B102A8019300F09BF8019BCE
S31500001AA0C5F11006D4F83880002EC44612DD22AAED
S31500001AB04FEA460C02EBC506C8EB06060CF1FF31F1
S31500001AC0A8F1040252F8040FB0500139481CF9D1AC
S31500001AD008EB8C0CB7B144AA102D2CBF2846102059
S31500001AE002EBC0004FEA4708A0F5C47008F1FF32C8
S31500001AF0614651F8046B40F8046B013A561CF8D164
S31500001B000CEB880C012B1AD00F2DC4F838C002D864
S31500001B1022A800F053F817B102A800F057F80020E9
S31500001B2025E7102F8CD9103F93E723F0100323608D
S31500001B3004F5E870019200F09FF8019A22E70CF193
S31500001B400403A36322A800F031F8E8E723F00803B2
S31500001B50236004F5A87000F063F838E7204622F009
S31500001B60040240F8D02B019300F034F8019B88E77B
S31500001B7022A8019300F01EF8019B002F90D191E757
S31500001B8041F0020140F8481B019300F01BF8019B4D
S31500001B9073E700BF00F1340191E838009C46A64681
S31500001BA04CF8045D90E8FF0FE54600BD90EC210B74
S31500001BB0704700BF80EC210B704700BF90EC200BF4
S31500001BC0704700BF80EC200B704700BFD0EC200BA5
S31500001BD0704700BFC0EC200B704700BFF0EC02015D
S31500001BE0F0EC0211F0EC0221F0EC0231F0EC0241D3
S31500001BF0F0EC0251F0EC0261F0EC0271F0EC0281C3
S31500001C00F0EC0291F0EC02A1F0EC02B1F0EC02C1B2
S31500001C10F0EC02D1F0EC02E1F0EC02F1704700BF0B
S31500001C20E0EC0201E0EC0211E0EC0221E0EC023112
S31500001C30E0EC0241E0EC0251E0EC0261E0EC027102
S31500001C40E0EC0281E0EC0291E0EC02A1E0EC02B1F2
S31500001C50E0EC02C1E0EC02D1E0EC02E1E0EC02F1E2
S31500001C60704700BFB0FC0181B0FC0191B0FC01A13E
S31500001C70B0FC01B1704700BFA0FC0181A0FC01913E
S31500001C80A0FC01A1A0FC01B1704700BFEC4600B565
S31500001C902DE900502DE9FF1F4FF000032DE90C0040
S31500001CA001A9FFF7DDFBDDF840E012B0704700BF89
S31500001CB0EC4600B52DE900502DE9FF1F4FF000035B
S31500001CC02DE90C0001A9FFF705FCDDF840E012B094
S31500001CD0704700BFEC4600B52DE900502DE9FF1F07
S31500001CE04FF000032DE90C0001A9FFF715FCDDF804
S31500001CF040E012B0704700BFEC4600B52DE9005039
S31500001D002DE9FF1F4FF000032DE90C0001ABFFF793
S31500001D10D7FBDDF840E012B0704700BFEC4600B5D7
S31500001D202DE900502DE9FF1F4FF000032DE90C00AF
S31500001D3001AAFFF753FCDDF840E012B0704700BF80
S31500001D40037A1BB9437A43B9B02070470268013B56
S31500001D50037213020360100E70474268013B437220
S31500001D60111D126841600323037213020360100EF3
S31500001D70704700BF00B585B003AB002100930C226D
S31500001D800B46FFF7DBFB039805B05DF804FB00BFCD
S31500001D90FFF7F0BF2DE9F043064685B00D464FF03C
S31500001DA000082846FFF7CCFFB028044600F0AC80B8
S31500001DB020F07F0212F0FF0120D000F0F002802A0E
S31500001DC073D0902A36D0A02A42D0B02A56D0C02A44
S31500001DD000F0828000F0F803D02B0BD100F007044E
S31500001DE0621C42F40022304601210523FFF7ACFDB8
S31500001DF00028D6D0092005B0BDE8F08303AF4FEA2E
S31500001E0080090B46009730460D22FFF797FB5FFAD5
S31500001E1089F9039B09F1040960064CBFC9EB03036A
S31500001E204B440393002100970B4630460D22FFF7E3
S31500001E30ADFBB6E700F00D030D2BDBD003AF0021A1
S31500001E4000F00F0200970B463046FFF777FBE9E7F5
S31500001E50C2434FF47F6302F0070243FA02F201071E
S31500001E6002EA03024FF0000148BF42F480420B46EB
S31500001E703046FFF769FD0028BCD192E7B12848D06B
S31500001E80B22851D0B3287CD000F0FC03B42BB1D0DB
S31500001E9000F007020132012142F400220B463046CF
S31500001EA0FFF752FD0028A5D17BE72846FFF748FF3C
S31500001EB024022043B0F5004F9CD004010021A2B2B9
S31500001EC00B463046FFF740FD002893D114F4004F2F
S31500001ED018BF4FF0010864E7C6285ED0C72868D04F
S31500001EE000F0F803C02B77D0C82800F08D80C928F1
S31500001EF080D12846FFF724FF00F00F03013300F0DE
S31500001F00F00243EA02326EE7B8F1000F6BD0002010
S31500001F1071E72846FFF714FF024600283FF46AAF30
S31500001F2010F0F001BAD065E7002103AF0D220B4691
S31500001F3000973046FFF702FB2846FFF701FF02062F
S31500001F404FF002040CD5039B00F07F00A040034431
S31500001F5028460393FFF7F4FE030604F10704F2D4C0
S31500001F60039B009700F07F0000FA04F403F5017369
S31500001F7000211C4430460B460D220394FFF706FB56
S31500001F800FE72846FFF7DCFE00F00F03013300F0F1
S31500001F90F002012143EA023280E72846FFF7D0FE2D
S31500001FA000F00F03013300F0F002032143EA02328E
S31500001FB074E72846FFF7C4FE024600283FF41AAF2E
S31500001FC010F0F0037FF416AF30460421FFF7BCFC97
S31500001FD000287FF40FAFE4E600F00F020132032180
S31500001FE042F420225AE703AC41460E2243460094AF
S31500001FF03046FFF7A3FA0094304641460F22434687
S31500002000FFF7C4FA4046F6E62846FFF799FE00F0C9
S31500002010F00200F00F031032013343EA0232E2E627
S3150000202000B5C36C85B05A6803208DF80C000846CD
S3150000203011020191DA798DF80D20083301A9029376
S31500002040FFF7A8FE05B05DF804FB00BF08B5FFF773
S315000020509FFE806C08BD00BF08B5FFF799FEC36CF4
S31500002060DA7903EB8200083008BD00BF08B51BF023
S31500002070BDFD00BF08B51BF0B9FD00BF704700BF2E
S3150000208000292DE9F00FC0F29F800024002BC0F23A
S315000020909680154606460F46002B3ED18A4257D9F2
S315000020A0B2FA82F34BB1C3F1200201FA03F720FA28
S315000020B002F29D40174300FA03F6290CB7FBF1F232
S315000020C0330C01FB127CA8B243EA0C4700FB02F377
S315000020D0BB4209D97F1902F1FF3C80F00181BB4266
S315000020E040F2FE80023A2F44FF1AB7FBF1F3B6B274
S315000020F001FB137146EA014100FB03F0884208D94F
S31500002100491903F1FF3780F0ED80884240F2EA80FA
S31500002110023B43EA0242002303E08B420AD9002332
S315000021201A461046194614B1404261EB4101BDE81A
S31500002130F00F7047B3FA83F8B8F1000F40F08480CF
S315000021408B4202D3824200F2DE8000230122E8E7BE
S3150000215012B90123B3FBF2F5B5FA85F2002A39D19B
S315000021607F1B280C1FFA85FC0123B7FBF0F1320C0C
S3150000217000FB117742EA07470CFB01F2BA4207D986
S315000021807F1901F1FF3802D2BA4200F2C1804146FE
S31500002190BF1AB7FBF0F2B6B200FB127046EA004077
S315000021A00CFB02FC844507D9401902F1FF3702D225
S315000021B0844500F2AB803A4642EA0142B1E7E44385
S315000021C0524263EB430364E7404261EB41014FF047
S315000021D0FF345BE79540C2F1200327FA03F1280C90
S315000021E026FA03F39740B1FBF0F81F433B0C00FBC4
S315000021F018111FFA85FC43EA01410CFB08F38B42D8
S3150000220006FA02F608D9491908F1FF3279D28B424B
S3150000221077D9A8F102082944C91AB1FBF0F3BFB275
S3150000222000FB131147EA01470CFB03F2BA4207D938
S315000022307F1903F1FF3160D2BA425ED9023B2F44C7
S31500002240BF1A43EA084390E7C8F1200203FA08FCE4
S3150000225025FA02F343EA0C0C4FEA1C4921FA02F371
S3150000226001FA08F720FA02F2B3FBF9F1174309FB6A
S3150000227011333A0C1FFA8CFB42EA03430BFB01FABB
S315000022809A4505FA08F008D913EB0C0301F1FF3261
S3150000229035D29A4533D902396344CAEB0303B3FBFB
S315000022A0F9F209FB1233BFB247EA03470BFB02F907
S315000022B0B94508D917EB0C0702F1FF331BD2B94514
S315000022C019D9023A674442EA0145A5FB0001C9EB68
S315000022D007078F424FF000030AD305D02A4620E7AE
S315000022E0624601E73B4614E706FA08F68642F5D24F
S315000022F06A1E002315E71A46E5E70B46A0E71146D6
S31500002300CBE7904688E7434642460AE7023A53E758
S3150000231002392F443CE700BF2DE9F00F144605466D
S315000023200E46002B43D18A4253D9B2FA82F757B1EF
S31500002330C7F1200620FA06F601FA07F302FA07F4B7
S315000023401E4300FA07F5210CB6FBF1F22B0C01FB3C
S315000023501267A0B243EA074600FB02F3B34209D96B
S31500002360361902F1FF3780F0F680B34240F2F3806F
S31500002370023A2644F61AB6FBF1F3ADB201FB13613D
S3150000238045EA014100FB03F0884208D9091903F127
S31500002390FF3680F0E280884240F2DF80023B43EA6B
S315000023A00242002310461946BDE8F00F70478B42E3
S315000023B04AD8B3FA83F6002E4DD18B4202D382421D
S315000023C000F2D6800023012210461946BDE8F00F20
S315000023D0704712B90124B4FBF2F4B4FA84F2002A6D
S315000023E07CD1091B260CA7B20123B1FBF6F02A0CFF
S315000023F006FB101142EA014107FB00F28A4207D9A7
S31500002400091900F1FF3C02D28A4200F2C3806046FD
S31500002410891AB1FBF6F2ADB206FB121145EA014587
S3150000242007FB02F7AF4208D92C1902F1FF3180F001
S315000024309680A74240F29380023A42EA0042104652
S315000024401946BDE8F00F704700231A461046194694
S31500002450BDE8F00F7047C6F1200522FA05F4B34037
S315000024601C434FEA144821FA05F301FA06F720FA4D
S3150000247005F5B3FBF8FC2F4308FB1C333D0C1FFA94
S3150000248084FA45EA03430AFB0CF9994502FA06FB6E
S3150000249004D91B190CF1FF326DD39446C9EB030323
S315000024A0B3FBF8F508FB1533BFB247EA03470AFB4F
S315000024B005F8B84504D93F1905F1FF3361D31D4628
S315000024C045EA0C4CACFB0B23C8EB07079F424FF0C9
S315000024D0000549D345D062462B4663E79440C2F1D6
S315000024E0200321FA03FC260C20FA03F301FA02F575
S315000024F0BCFBF6F843EA05010B0C06FB18CCA7B2A9
S3150000250043EA0C4C07FB08F3634500FA02F509D9C8
S315000025101CEB040C08F1FF323AD2634538D9A8F116
S315000025200208A444C3EB0C0CBCFBF6F389B206FB11
S3150000253013CC41EA0C4107FB03F28A4207D9091979
S3150000254003F1FF3022D28A4220D9023B2144891A64
S3150000255043EA084349E73A460CE733461FE70A468B
S315000025606BE7B0409042B6D20CF1FF32002319E778
S315000025703346324616E799458FD9ACF1020C23440F
S315000025808CE7B8459BD9023D274499E70346DEE729
S315000025909046C7E7023821443AE700BF70B44C1EA4
S315000025A04A2C2CD8DFE804F03C3C3C3C2B2B2B2B54
S315000025B026263C2626262626262626262626262B9A
S315000025C027272727272727273C26262626262B2682
S315000025D0273D3C2B3C27273D2B2B26263C3C3C3CD1
S315000025E03C263C3C263C2B2B2626262B2B2B262614
S315000025F0263C3C00CAB144698569AC4202DB002036
S3150000260070BC704704EB440506690134AD004461B3
S3150000261074190CD071556260A360204670BC704777
S315000026201AB1002BE7D11846EAE71046E8E720463C
S31500002630E6E700BF30B443698469A34209DA03EBD5
S31500002640430405690133A40043612B1901D001B18C
S3150000265012B9002030BC70470020285559609A6096
S31500002660184630BC704700BF2DE9F041C5680446E6
S31500002670884617462B780E4617E0562B22D04B2B52
S315000026802DD1236B0135002F03F10603E56023638B
S315000026900CBF1B211E21002213462046FFF77EFF9A
S315000026A03060D0B1E5682B78061D722BE5D1236B1F
S315000026B00135002F03F10903E56023630CBF1921DF
S315000026C01C21E8E7236B0135002F03F10903E560C0
S315000026D023630CBF1A211D21DDE7BDE8F081BFB9D8
S315000026E0462B15D1464513D01D241E201C2108E07B
S315000026F01B2A10D0192A00D1197003F10408464587
S3150000270006D0D8F800301A781A2AF1D11C70F4E7EE
S315000027103046BDE8F0811870EFE700BF10B4C4681A
S315000027202378522B0A4610D04F2B03D008465DF86B
S31500002730044B7047036B0333036320210134C460E9
S3150000274000235DF8044BFFF729BF036B02330363D5
S315000027501F21F3E72DE9F0410F46C1680C782E2CB6
S31500002760804627D00B462E2C14D15C78303C092CA1
S3150000277010D89C78A4F13002092A03F1020017D878
S31500002780DD1C2B4601351C78A4F13006092EF8D93C
S315000027902E2CEAD05A1AC8F80C304046FFF74AFFEA
S315000027A03A4603464B214046BDE8F041FFF7F6BEE8
S315000027B00346D8E74B78A3F16102192A0AD88A1C86
S315000027C0134601321C78A4F161001928F8D95F2C50
S315000027D0F6D0C8E75F2BC5D1F1E700BF2DE9F003BE
S315000027E0C2681378532B03D00020BDE8F00370476E
S315000027F0531CC3605378ABB1931CC36053785F2BF3
S3150000280052D10021036A9942EED2836AC26901332A
S315000028108362BDE8F00352F821007047A3F141023C
S31500002820192A46D9826812076AD400296AD13F4A12
S3150000283002F1C40502E01C32AA42D5D014789C42AB
S31500002840F9D15569002D6AD043698469D2F8188098
S31500002850A34262DA03EB4307D0F810C0BF0001338E
S315000028601CEB070643615FD04FF018090CF8079080
S3150000287037467560C6F80880C76200294AD0D56811
S315000028801269016BA34211440163ADDA03EB430104
S315000028900469013389004361631843D018206054EA
S315000028A018465D609A60A0E7A3F13005EAB2092AEE
S315000028B0B4D8002212E002EBC20103EB8103A3F1BC
S315000028C030018A4290D8C2681378541C1BB1C46088
S315000028D013785F2B12D0A3F130050A46E9B2A3F1B3
S315000028E041040929E4B2E6D9192C3FF67DAF02EB83
S315000028F0C20103EB8103A3F13701E2E7013181E76E
S31500002900012194E7C2681178433901298CBF00215F
S3150000291001218CE755689268B3E70027ACE7846924
S315000029204369AAE7184660E73746A5E7581002004C
S3150000293070B50D46D0F80011FF29044606D04A1C92
S31500002940C4F80021655484F8045170BD0026D0F8FF
S315000029500831D0F80C2180F8FF609847D4F8203170
S3150000296031465A1CC4F820210122C4F800216554BE
S3150000297084F8045170BD00BF70B4026813786E2BE2
S31500002980054618D00026A3F13002092A18D82A686D
S315000029900020013200EB80042A6003EB440412F8A5
S315000029A0013BA3F130010929A4F13000F2D906B1A7
S315000029B0404270BC7047531C036053780126E2E71F
S315000029C00020F4E743698269934210B513DA03EBFA
S315000029D043020169920001338C18436108D04023F9
S315000029E08B540C30FFF7C8FF23466060184610BDB5
S315000029F02346184610BD0023184610BD10B5C368FF
S31500002A001A785F2A04460BD06E2A06D00C30FFF7E0
S31500002A10B3FFE3681A785F2A06D04FF0FF3010BD87
S31500002A2000200133E36010BD0130FAE738B5C36812
S31500002A301A78542A044601D0002038BD0133C360F9
S31500002A40FFF7DCFF051EF7DBA16A6369A2690131A6
S31500002A509342A162F0DA03EB43022169013392004B
S31500002A6063618B18E8D005248C545D60184638BD28
S31500002A7008B5C3681A785F2A01D0012008BD013362
S31500002A8040F80C3FFFF778FFC043C00F08BD00BFFA
S31500002A9070B504460C30FFF76FFF061E32DDE568A1
S31500002AA063685B1B9E422FDCA268AB195207E3608A
S31500002AB015D4092E0CDD28461449082218F034FADC
S31500002AC030B92B7A2E2B10D05F2B0ED0242B0CD0A6
S31500002AD0294632462046FFF7ADFDE06270BDAA5D8D
S31500002AE0242A04BF0133E360E3E76B7A4E2BEFD170
S31500002AF0236B074916339E1B266320461522FFF7D4
S31500002B0099FDEAE7002070BD0020E6E7A42A02004E
S31500002B10B02A020038B5044629B9C3681A7832B11A
S31500002B205A1CC2601978682912D0762901D0002073
S31500002B3038BD04F10C052846FFF71EFFE3681A7836
S31500002B405F2AF4D10133E3602846FFF715FF03E05F
S31500002B5004F10C00FFF710FFE3681A785F2AE6D14C
S31500002B600133E360012038BDD0F810310246C3B10D
S31500002B705A680B68906870B102782F2A0DD1002B25
S31500002B8004DC09E002782F2A07D143B18068013BB3
S31500002B900028F7D17047704701D000207047406881
S31500002BA0704701211846C2F81811704738B50C460F
S31500002BB0054691B323784A2B27D8DFE803F02E2663
S31500002BC0262626302E2B2B26262626262626262683
S31500002BD02626262626262E26262626262626262687
S31500002BE026262626262E2626262626262626262E6F
S31500002BF02B2626262626262626262626262E262662
S31500002C0026262E262E26262E2E0028466168FFF71B
S31500002C10CDFF18B9A468002CCCD1002038BD2846B9
S31500002C20211DFFF7A1FF0028F7D003782F2BF4D141
S31500002C3038BD00BFF0B55368946801330B44A34216
S31500002C4083B015460E46074613D8EC680CB103B0A0
S31500002C50F0BD95E8090032463946184418F073F974
S31500002C6095E80C003244D4546B681E446E6003B081
S31500002C70F0BDD268002AEAD11CB9022B4FF002043B
S31500002C8002D96400A342FCD82868214618F020FA2D
S31500002C90034610B12860AC60D7E72868019318F0A6
S31500002CA03BF9019B2B6001226B60AB60EA60CEE7CB
S31500002CB02DE9F041C3681A784C2A054602D0002057
S31500002CC0BDE8F0815A1CC26059785F293AD05A296A
S31500002CD00DD10132EA602846002100F0F3FDEA68D2
S31500002CE01378452BEBD10132EA60BDE8F08100F0A4
S31500002CF003FA07460028E2D00378272B33D0E96889
S31500002D000B786E2B28D04FF03B08452B34D0002B88
S31500002D10D5D04B1C01E0002CD1D0EB601E4613F839
S31500002D20014B452CF7D1721A2846FFF783FC3A4629
S31500002D30034641462846FFF731FCEA681378452BDF
S31500002D40BDD1D0E79A1CC2609B785A2BC1D0452BC7
S31500002D504FF00000B3D1C6E74A1CEA604B784FF04B
S31500002D603C081146D1E743681A7C002AC7D05A6846
S31500002D702B6B9B1A2B63C2E70022D5E7F0B5C1681F
S31500002D80C76A0B78493B012B83B004461ED84A1C00
S31500002D90C2604B78452B45D002AE002146F8041D93
S31500002DA0493B0F2B35D8DFE803F02F2F341434348A
S31500002DB0343434343434343434080132E260204656
S31500002DC001F06CFAE3681A78452A27D0002003B090
S31500002DD0F0BD2046FFF76CFF054620462F212A4608
S31500002DE00023002DF2D0FFF7D9FB306000F1080672
S31500002DF00028EBD0E2681378452BD1D10198E76221
S31500002E000132E26003B0F0BD2046FFF7B7FF05468A
S31500002E10E3E7204600F070F90546DEE70133E3609C
S31500002E200546DAE702310022C16013462F2103B0BE
S31500002E30BDE8F040FFF7B2BB2DE9F041C268137858
S31500002E404C3B82B005460E2B6DD8DFE803F02C6CA8
S31500002E50316C6C6C6C176C2C6C6C6C6C08000132F1
S31500002E600021C26000F02EFDEB6819784529064660
S31500002E7000F0D180002002B0BDE8F0815378742BB9
S31500002E8069D00021FFF7AAFCEB681B78492B0446A2
S31500002E9050D12846FFF772FF2246034604212846F2
S31500002EA0FFF77CFB01E001F0BBF802B0BDE8F08162
S31500002EB00132C26001A90122FFF7D6FB07460028AE
S31500002EC0D8D028460021FFF729FCEB681C788046FD
S31500002ED00026002C00F08E80442C00F08280A4F1A5
S31500002EE03002D2B2092A5CD9A4F16102D2B2192AFF
S31500002EF057D9432C55D0552C53D04C2C51D0532C4C
S31500002F0000F08480492C7AD0542C00F0B380452CF4
S31500002F1000F0D8804D2C6DD1002E6BD05A1CEA6083
S31500002F205C781346D5E701F07BF8EB681B78492BF4
S31500002F30044603D0204602B0BDE8F081002899D0AF
S31500002F402B6A6A6A934295DAEA69591C42F82300A9
S31500002F50284629629EE702326549C2600322FFF7CE
S31500002F6069FB0446284601F05BF822460346012128
S31500002F702846FFF713FB2A6BEB6803322A631B789C
S31500002F80492B0446D6D100283FF474AF2B6A6A6AEF
S31500002F909342BFF66FAFEA69591C42F823002962D3
S31500002FA077E7284601F03CF8CEB1012132460346C8
S31500002FB02846FFF7F3FA0646EB68532C1C7888D0B0
S31500002FC0452C8CD0B6B12B6A6A6A934212DAEA694A
S31500002FD042F823605A1CEB682A621C7879E7064699
S31500002FE0EAE75B7803F0DF03542BDAD1284600F0DA
S31500002FF083F8D9E70020386002B0BDE8F081002EE2
S31500003000F8D02846FFF7BAFE0421CFE7284601216B
S31500003010FFF7E4FBC8E75A1CEA605A78732A3DD0EA
S31500003020642A2BD04FF0FF372846FFF705FF0446EA
S3150000303020B10378442B01D0462B29D17B1C25D007
S315000030406B69AA69934213DA03EB430229690133D8
S3150000305092006B618B1803D0452088549F605C609A
S31500003060284632460221FFF799FA02B0BDE8F08100
S315000030700023F5E72846FFF7D9FC95E70233EB6016
S315000030802846FFF7BBFC071ECEDAF3E62346E7E742
S315000030902846FFF7EDFC0028D0D1EBE60233EB60C3
S315000030A02846FFF7E5FC00283FF4E4AE2846114920
S315000030B00E22FFF7BFFA3246034602212846FFF7E3
S315000030C06DFAF2E63E60002E3FF4D4AEB8F1000F82
S315000030D004D0019BC8F80430CDF80480EB681A7858
S315000030E0452A7FF4C7AE0133EB600198DDE600BFE9
S315000030F0D82A0200C82A0200F0B5C2681378722BDB
S3150000310083B0044654D0562B52D04B2B50D0A3F14B
S3150000311030014A297DD8DFE811F0A200A200A20002
S31500003120A200A200A200A200A200A200A2007C00AF
S315000031307C007C007C007C007C007C00A7007C007E
S31500003140CF00FF007C00DC00F2007C007C007C00ED
S315000031507C007C007101A200C101A7017C00B401C2
S31500003160CE01EF0107027C007C007C007C00A200FF
S315000031707C007C007C007C007C007C00180218022D
S315000031801802180218021802180218021802180269
S315000031907C0018021802180218027C007C007C00D1
S315000031A018021802890018021802180218021802DA
S315000031B0204601A90022FFF757FA054648B32046E4
S315000031C0FFF79AFF286020B302781F3A012A23D915
S315000031D0019AF2B1236A616A8B421ADAE16941F80F
S315000031E0232001985D1C256203B0F0BD204601F046
S315000031F055F84121024600232046FFF7CFF90190FA
S3150000320038B1E3681A7822B15A1CE2601B78452B64
S315000032101AD0002003B0F0BD019A416842602B68C5
S3150000322001932960019A002AD4D1F2E70132E260C3
S315000032302046FFF72DFC2821024600232046FFF7F3
S31500003240ADF901900028E4D0236A626A9342E0DA7D
S31500003250E269591C42F8230001982162DAE7204608
S31500003260FFF7EAFD0190EDE7511CE16053785F2B13
S3150000327000F07982303B092B00F27E820A46013249
S31500003280E2601378303B092BF9D9521A2046FFF732
S31500003290D1F90546002830D0E1680B785F2B2CD198
S315000032A00131E1602046FFF727FF2A4603462A211F
S315000032B02046FFF773F9D5E70132E2602046FFF7B3
S315000032C01BFF2521024600232046FFF767F90190E0
S315000032D0B8E7531CE3605378592B04BF0232E2600F
S315000032E00121204600F0D0FA01462046FFF716FAE3
S315000032F0E3681A78452A00F03C820020B2E70132E2
S31500003300E2602046FFF7F8FE26210246002320460B
S31500003310FFF744F9019095E7531CE3605378002BBF
S315000033203FF477AF931CE3605378463B302B3FF670
S3150000333070AF01A151F823F051360000133200009E
S315000033401332000013320000133200001332000063
S315000033501332000013320000133200001332000053
S315000033601332000013320000133200001332000043
S31500003370ED3100001332000013320000133200005A
S315000033801332000013320000133200001332000023
S315000033901332000013320000133200001332000013
S315000033A013320000453600001332000013320000CD
S315000033B01D360000F5350000CD3500001332000043
S315000033C0A5350000753500001332000013320000E9
S315000033D013320000133200002937000013320000B8
S315000033E0133700001332000013320000EF360000DE
S315000033F0ED31000013320000B73600000132E26002
S315000034002046FFF779FE01AE0746314620460122E7
S31500003410FFF72AF9054600283FF46FAF2046FFF76D
S315000034206BFE286000283FF468AFB54215D00178DE
S31500003430A1F11F02012A40F2A78129290DD0019A84
S31500003440002A3FF45AAF236A616A8B42BFF655AF32
S31500003450E169581C41F8232020623A4620462B2178
S31500003460019BFFF79BF8FDE60132E2602046FFF77D
S3150000347043FE2221024600232046FFF78FF80190E3
S31500003480E0E60132E2602046FFF736FE23210246DF
S3150000349000232046FFF782F80190D3E60132E2606E
S315000034A02046FFF729FE2421024600232046FFF787
S315000034B075F80190C6E65378A3F13002092A05D9BA
S315000034C05F2B03D0413B192B00F266812046002179
S315000034D0FFF784F9E36801901B78492B05467FF4D2
S315000034E099AE2046FFF74AFC2A46034604212046A9
S315000034F0FFF754F80190A5E62046FFF797FAE36830
S3150000350001901B78492B7FF49DAE00283FF481AED5
S31500003510236A626A9342BFF67CAEE269591C42F89E
S315000035202300019D2162DCE70132E2602046FFF7BD
S31500003530AFFA01902046FFF7DFFD21210246019BED
S315000035402046FFF72BF801907CE66169A069A34D40
S31500003550613B03EB8303814205EB8303C0F2F680F4
S31500003560002318465B685968236B01320B44E260FE
S3150000357023634FE66369A269934280F2F68003EB08
S3150000358043022169920001338818636100F02181AA
S31500003590934D27238B542B4645605A68236B13445F
S315000035A0236337E66369A269934280F2DE8003EB08
S315000035B043022169920001338818636100F0098192
S315000035C0884D27238B542B464560E6E76369A2693D
S315000035D0934280F2CA8003EB4302216992000133D1
S315000035E08818636100F0F5807F4D27238B542B46A6
S315000035F04560D2E76369A269934280F2B68003EB25
S3150000360043022169920001338818636100F0E1806A
S31500003610764D27238B542B464560BEE76369A26926
S31500003620934280F2A28003EB4302216992000133A8
S315000036308818636100F0CD806D4D27238B542B468F
S315000036404560AAE720466B490422FEF7F3FFE1E551
S315000036506369A1698B4280F2AB80216903EB430564
S31500003660013301EB850563612C2301952B7093785B
S31500003670303B092B8CBF002301232B81002B40F00C
S3150000368099802046FFF738FD6860019B5B68002B38
S315000036903FF4BFAD04F10C00FFF76EF9E3681A784A
S315000036A032B15A1CE2601A78B2F173035A425A4197
S315000036B001984281AEE593785F2B00F08180204629
S315000036C0FFF780F90546002D00F08180E3681A783F
S315000036D05F2A7FF412AE0133E3602046FFF70CFD4C
S315000036E02A4603462D212046FEF758FFBAE56369B0
S315000036F0A269934239DA03EB43022169920001334E
S315000037008818636165D03C4D27238B542B46456052
S3150000371043E72046FFF7F0FC4921024600232046F6
S31500003720FEF73CFF01908DE56369A26993421CDABE
S3150000373003EB43022169920001338818636148D084
S315000037402E4D27238B542B46456026E701EB41007F
S31500003750256901318000616129183CD027262E5445
S3150000376008464B60FFE600259AE5002318465B688D
S3150000377013E70133E36075E5204600F08FFD05464B
S3150000378000287FF489ADB8E50199426841602B684D
S31500003790019311782A6050E62046FFF74DFB019011
S315000037A000283FF436AD0378182B7FF44DAD31E594
S315000037B0002559E704F10C00FFF7DEF8019D60E7EC
S315000037C00332E260204600F069FD05467BE72846A5
S315000037D048E54368E1E64B680846C4E61C1102006A
S315000037E08813020060130200241302004C13020027
S315000037F038130200DC2A0200741302009C13020034
S3150000380070B582B00023C16801930B7804464BB3B0
S31500003810452B27D02E2B25D001AE17E04F2B17D0E6
S315000038202046FFF769FC05462E2120462A4600233E
S31500003830C5B1FEF7B3FE3060A0B1E1680B7800F1C8
S31500003840080643B1452B06D02E2B04D0522BE5D1CA
S315000038504B78452BE4D1019B23B19A682AB11846CF
S3150000386002B070BD002002B070BD596808782728E4
S31500003870F5D14968087C0928F1D14868216B091AF5
S31500003880216318465A60EBE770B5C3681A784A2A6E
S3150000389004460DD071B90D462046FFF7B1FF034629
S315000038A070B120462A462921BDE87040FEF776BE53
S315000038B00133C3602046FFF71FFC05460028EBD105
S315000038C0002070BD2DE9F047C3681A78472A0546DF
S315000038D00E4634D0542A32D0FFF7AEFA044658B317
S315000038E016B1AB68DB071FD5EB681B7823B3452BF6
S315000038F022D021460B78042BA3F11C0200F0A480F1
S31500003900C0F0A080042A00F29D8049680029F1D108
S315000039102846FFF7B9FF2246034603212846BDE89D
S31500003920F047FEF73BBE64682378A3F11C02042A25
S31500003930F9D9022B00F06E812046BDE8F087296B8D
S3150000394001F114022A631A78542A05D0472A00F096
S31500003950ED800020BDE8F0875A1CEA605A78002AFC
S31500003960F7D09A1CEA605B78433B332BF1D801A26F
S3150000397052F823F0813E000053390000533900000D
S315000039806B3E000053390000553E00003F3E0000EC
S31500003990293E000053390000533900005339000016
S315000039A053390000533900005339000053390000E1
S315000039B053390000133E0000F93D00005339000062
S315000039C0DF3D0000A33D00005339000053390000DD
S315000039D053390000533900005339000053390000B1
S315000039E053390000533900005339000053390000A1
S315000039F0533900006F3D0000533900005339000071
S31500003A005339000053390000B93D00005339000016
S31500003A105339000053390000533900005339000070
S31500003A205339000053390000533900005339000060
S31500003A305339000053390000533900005339000050
S31500003A40493D0000002163E74B68002B00F0F4803D
S31500003A501A78013A322A00F2EF8001A151F822F0D9
S31500003A60313C0000313C0000393C0000393C00008C
S31500003A70393C0000393C0000453A0000453A000058
S31500003A80393C0000393C0000393C0000393C00005C
S31500003A90393C0000393C0000393C0000393C00004C
S31500003AA0393C0000393C0000393C0000393C00003C
S31500003AB0393C0000393C0000393C0000393C00002C
S31500003AC0393C0000393C0000393C0000393C00001C
S31500003AD0393C0000393C0000393C0000393C00000C
S31500003AE0393C0000393C0000393C0000393C0000FC
S31500003AF0393C0000393C0000393C0000393C0000EC
S31500003B00393C0000393C0000393C0000393C0000DB
S31500003B10393C0000393C0000393C0000393C0000CB
S31500003B20393C0000393C0000453A00005A1CEA6066
S31500003B305A78002A3FF40DAF9A1CEA605A78413A47
S31500003B40312A3FF606AF01A151F822F0053D0000EB
S31500003B50533900005339000053390000533900002F
S31500003B60533900005339000053390000533900001F
S31500003B70533900005339000053390000533900000F
S31500003B8053390000533900005339000053390000FF
S31500003B90E73C0000533900001D3D0000533900008A
S31500003BA0D13C00005339000053390000533900005E
S31500003BB053390000533900005339000053390000CF
S31500003BC053390000533900005339000053390000BF
S31500003BD053390000533900005339000053390000AF
S31500003BE0533900005339000053390000533900009F
S31500003BF0533900005339000053390000533900008F
S31500003C00533900005339000053390000533900007E
S31500003C103D3C0000A3681A781C3A042A04D85B6865
S31500003C201A781C3A042AFAD9A3602046BDE8F08720
S31500003C309B68002B7FF40CAF012169E605F10C00AF
S31500003C40FEF79AFE01287FF784AEEB681A78002A01
S31500003C503FF47FAE5E1CEE601B785F2B7FF479AE7F
S31500003C60471E4FF000084FF03F093378002B3FF412
S31500003C7070AE242B00F024810024335D23B1242B65
S31500003C8002D00134BC42F8DB314628462246FEF714
S31500003C90D1FCEE6826443F1BEE6000283FF459AE87
S31500003CA0B8F1000F00F02981424603463E2128461E
S31500003CB0FEF774FC804600283FF44BAE002FD4DCA0
S31500003CC0284642463D210023BDE8F047FEF766BC84
S31500003CD02846FFF7B1F81321024600232846BDE81F
S31500003CE0F047FEF75BBC2846FFF7A6F804462846D1
S31500003CF0FEF768FE2246034616212846BDE8F04731
S31500003D00FEF74CBC28460021FFF7DCFD17210246D2
S31500003D1000232846BDE8F047FEF740BC9A782846BF
S31500003D200021002A00F0EB80DA1CEA609B786E2BFB
S31500003D3040F0E580FFF7C6FD4821024600232846ED
S31500003D40BDE8F047FEF72ABC28467621FEF7E2FEDC
S31500003D5000283FF4FEAD28460021FFF7B3FD1021F1
S31500003D60024600232846BDE8F047FEF717BC284662
S31500003D700021FEF7CFFE00283FF4EBAD28460021D8
S31500003D80FEF7C8FE00283FF4E4AD28460021FFF701
S31500003D9099FD1121024600232846BDE8F047FEF7AB
S31500003DA0FDBB2846FFF748F81521024600232846A2
S31500003DB0BDE8F047FEF7F2BB28466821FEF7AAFEEB
S31500003DC000283FF4C6AD28460021FFF77BFD0F21F2
S31500003DD0024600232846BDE8F047FEF7DFBB0F3159
S31500003DE029632846FFF788F9092102460023284659
S31500003DF0BDE8F047FEF7D2BB0A3129632846FFF734
S31500003E007BF90A21024600232846BDE8F047FEF763
S31500003E10C5BB2846FFF770F90D2102460023284648
S31500003E20BDE8F047FEF7BABB2846FFF765F9122151
S31500003E30024600232846BDE8F047FEF7AFBB2846FA
S31500003E40FFF75AF90C21024600232846BDE8F04741
S31500003E50FEF7A4BB2846FEF7EFFF14210246002317
S31500003E602846BDE8F047FEF799BB2846FFF744F918
S31500003E700E21024600232846BDE8F047FEF78EBB1A
S31500003E802846FFF739F9044605F10C00FEF774FDE4
S31500003E900028FFF65EADEA6811785F297FF459AD18
S31500003EA00132EA602846FFF727F92B6B591D296373
S31500003EB00246234628460B21BDE8F047FEF76EBBB7
S31500003EC07378532B27D05F2B23D0242B7FF441AD5F
S31500003ED01C466B69AA6993421FDA2A69581C03EBD0
S31500003EE04301686112EB810017D002F8219044600B
S31500003EF0EE680236023FEE60D2E68046DEE6FFF767
S31500003F00E1FC4721024600232846BDE8F047FEF7BC
S31500003F1045BB2E24DDE72F24DBE7EB680233EB609D
S31500003F2017E500BF2DE9F041C3681F7880465FB3EF
S31500003F305A1CC26058781F7818B19A1CC8F80C2011
S31500003F405878762F41D1A0F13004E3B2092B1CD862
S31500003F504046FEF79DFDD8F81430D8F81820934255
S31500003F6001462FDA03EB4302D8F810000133920022
S31500003F70C8F81430831825D021B3322585545C60E7
S31500003F8099601846BDE8F0813846244E3D2400234A
S31500003F9004E0BA4213D90C46A34213D0E21A02EB4C
S31500003FA0D27203EB62010A0106EB020CB5582A78BD
S31500003FB09742EED16A78904216D08242EBD84B1CDB
S31500003FC0A342EBD10020BDE8F081632FDDD1762836
S31500003FD0DBD14046FFF790F83321024600234046E6
S31500003FE0BDE8F041FEF7DABAD8F81430D8F8182050
S31500003FF09342E7DA03EB4302D8F81010013392003C
S31500004000C8F814308B1806D031208854C3F804C081
S315000040101846BDE8F0811846BDE8F081B0130200ED
S31500004020F8B5C2681378A3F13001092904462ED9E0
S31500004030A3F16101192933D9A3F14301012971D9EA
S315000040404C2B00F08780552B40F08F8053786C2BDB
S3150000405030D0742B40F08980531CC360517874298A
S3150000406000F0C38042294FF0000517D10133E36009
S315000040702046FEF70DFD2A4603464A212046FEF756
S315000040808DFAE3681A78422A0546EFD006E0FEF775
S31500004090FFFCE368197805464229E7D02846F8BDB3
S315000040A0FFF740FF054610B10378312B5FD0E36878
S315000040B01978F1E7531CC36051786C29D2D10232CA
S315000040C0C260FFF79DFBE3680646002800F0E1802A
S315000040D019784529C6D10133E3602046FEF78EFCE8
S315000040E00028C0F29C806369A269934280F297809F
S315000040F003EB43022169920001338D18636100F0DE
S315000041008E8044238B546E60A860236A626A934251
S3150000411080F28580E26942F823505A1CE3682262E5
S315000041201978B9E7C06A00283CD00178002937D150
S31500004130216B83680B4423631178432978D0442983
S3150000414073D15378303B052B4DD8DFE803F0482D6B
S31500004150464C4C4A0132C260FEF79AFC054620B135
S315000041602046FEF785FC0028A1D10020F8BD436853
S31500004170226B9E6818684849324407322263FCF76E
S315000041806BFA002893D12046FEF782FC2A460346A6
S3150000419035212046FEF702FAE368054619787BE7E3
S315000041A01829C5D01946C8E702276169A569931C75
S315000041B0A942E36037DA01EB410526690131AD001A
S315000041C0616171192FD070B34FF0080C06F805C065
S315000041D00D460F71886091785EE70327E5E70127B2
S315000041E0E3E70427E1E7002558E70232C260FEF75D
S315000041F005FC002813DB6369A26993420FDA03EB1F
S3150000420043022169920001338D18636107D046236A
S315000042108B546860236A626A9342FFF67BAFE36859
S315000042200025197838E70025D5E71346002533E73A
S315000042305378313B042BD6D801A151F823F000BFA7
S3150000424087420000554200008F420000E74100000F
S315000042508B42000002276169A569931CA942E360AD
S31500004260E1DA01EB410526690131AD0061617119A1
S31500004270D9D00028D7D04FF0070C06F805C00D4658
S315000042800F718860A7E70127E5E70427E3E703271F
S31500004290E1E705461978FFE6E42A02002DE9F04138
S315000042A0C1680B784C2B044600F09E80542B00F01E
S315000042B09F80732B57D0662B2DD0A3F13002092A8D
S315000042C00DD82046FFF7ACFE0546002800F0838097
S315000042D0E3681B78492B00F0A380BDE8F0816F2BC3
S315000042E07CD0692B00F0A780742B17D14B786C2BF0
S315000042F014D1FEF701FFE16805460231E160204670
S31500004300452100F0A9F92A46034630212046BDE89A
S31500004310F041FEF743B94B78702B40D02046FFF7AB
S3150000432001FE0546002856D00678312E64D0322E7E
S315000043302BD0332E4FD10027E3681A785F2A00F07E
S315000043400D812046FFF7AAFF03462FB11A462046E5
S315000043503721FEF723F9034620462A463521BDE8D4
S31500004360F041FEF71BB94B78722B00F0DE80702B04
S31500004370D4D10231C160FFF791FF492102460023E3
S315000043802046BDE8F041FEF709B943680027032B34
S3150000439021D8DFE813F056003F019A005E008B1C1F
S315000043A0C3608B78542B00F0D580FEF727FB451CA5
S315000043B011D06369A26993420DDA03EB43022169C6
S315000043C00133920063618B1805D0062088545D6026
S315000043D01846BDE8F0810020BDE8F0814B786E2BD1
S315000043E09CD10231C1606CE7BDE8F041FEF760BCCC
S315000043F0BDE8F041FEF71ABBD0F80480236BD8F86D
S315000044000820D8F800708F49023A134423633846CF
S31500004410FCF722F9002800F0A980D8F80C30B6E79E
S315000044202046FEF7ABFC2A46034604212046BDE89B
S31500004430F041FEF7B3B84B786C2B7FF46FAF0025D5
S315000044405BE720462A4634210023BDE8F041FEF70B
S31500004450A5B838467C49FCF7FFF8002800F08A80AA
S315000044603B786E2BB7D17B78772B01D0612BB2D1FD
S315000044705F21204600F0F0F806462046FEF73CFE97
S31500004480E1680B78452B074600F0A980702B00F0F9
S31500004490B580692B9FD14B786C2B9CD12046FFF7BA
S315000044A0FDFE03463A4620463A21FEF777F83246A5
S315000044B0034639212046FEF771F82A46034638217D
S315000044C02046BDE8F041FEF769B86B681B685A786C
S315000044D0632A62D02046FFF7E1FE804638465B49F4
S315000044E0FCF7BAF8002852D038465949FCF7B4F818
S315000044F028B138465749FCF7AFF800286AD120465C
S31500004500FFF78EFDE3681B78492B06466BD04246C3
S31500004510334620463721FEF741F82A460346362120
S315000045202046BDE8F041FEF739B80231C160FEF71A
S31500004530E3FD05462046FFF773FDE1680978492942
S315000045400646204636D02A4633460121BDE8F041CC
S31500004550FEF724B80331C16000252AE70133E36082
S315000045602046452100F078F80346EEE62046FEF7A1
S31500004570C3FDF0E62046FFF791FE06462046FFF70C
S315000045808DFE07462046FFF789FE03468AE720464A
S31500004590452100F061F80646B9E71B78A3F16302EE
S315000045A0012A02D9723B012B94D82046FEF7A4FDBE
S315000045B0804693E7FEF7E2FB324603460421204697
S315000045C0FDF7ECFF2A46034601212046BDE8F041EF
S315000045D0FDF7E4BF2046FFF761FE064697E7013187
S315000045E0E16000235EE72046FEF7C8FB324603463D
S315000045F004212046FDF7D2FF064688E74B78692B53
S315000046007FF4E9AE0231E1602046452100F024F84E
S31500004610034647E72FB13B78702B06D06D2B04D0AD
S315000046200027332E7FF48DAE86E67A789A42F7D14C
S31500004630E3681A785F2A01D00127F2E70133E360C5
S315000046400027EEE7902F0200F42A0200E82A020073
S31500004650EC2A0200F02A0200F0B5C3680F4619786A
S3150000466083B00022B9420446019218BF01AE0AD1B6
S315000046701BE0FDF793FF306000F1080668B1E368C0
S315000046801A78BA420CD02046FFF708FE05462E21BE
S3150000469020462A460023002DEBD1002003B0F0BDB2
S315000046A001980133E36003B0F0BD0133C3602E21EE
S315000046B0134603B0BDE8F040FDF770BF2DE9F041A9
S315000046C0044608460D4616F0BEFD48B3D4F8001160
S315000046D02F184FF0000809E00B46BD4201F1010119
S315000046E0C4F80011E65484F8046119D0FF2915F8BE
S315000046F0016BF1D1D4F8083184F8FF80D4F80C218D
S3150000470020469847D4F820310133C4F820310023DD
S315000047100121BD42C4F80011E65484F80461E5D1D4
S31500004720BDE8F0812DE9F04F137897B015460446A1
S315000047300E464B2B01F28C81DFE813F08804A803A8
S31500004740A8031F03F804E00461051A030803E10245
S31500004750BA0293026C022E020702E001B90192012D
S315000047606B0144011D01F600CF00A80080006B001C
S315000047706B006B004C004C004C004C004C004C0095
S315000047804C00ED08ED084C004C00BF080F09B307BC
S3150000479042072507E2062507AE06AE066509150996
S315000047A03E0998085B0547053B0536057506700604
S315000047B0700631063106FA05EF05E105B0058905F3
S315000047C0710823084A088A09C807EE0761040C0421
S315000047D0D503B504D4F8142116AB002143F8402DB7
S315000047E0D4F810210795C4F81431089109926A6823
S315000047F02046314602F02CFA089B23B931462A4658
S31500004800204602F031FA069BC4F8143117B0BDE811
S31500004810F08FD0F814713A46002FDDD0916841B977
S3150000482051680978A1F11900022805D88B4201F0D8
S315000048304F851268002AF1D13A46CDE79768D2F83B
S315000048400490002FE2D00025D0F80011A84609E018
S315000048500B4601310135AF42C4F80011E65484F825
S315000048600461D3D0FF2919F80560F1D1D4F80831D5
S3150000487084F8FF80D4F80C2120469847D4F82031DC
S315000048800133C4F8203101210023E3E7D64FD0F8E5
S31500004890001107F1110A4FF000090AE00B46013139
S315000048A05745C4F8001104F8038084F8048101F028
S315000048B00882FF2917F8018FF0D1D4F8083184F85F
S315000048C0FF90D4F80C2120469847D4F820310133C4
S315000048D0C4F8203101210023E2E7C44FD0F80011CB
S315000048E007F1150A4FF000090AE00B46013157455A
S315000048F0C4F8001104F8038084F8048101F0EC8008
S31500004900FF2917F8018FF0D1D4F8083184F8FF9009
S31500004910D4F80C2120469847D4F820310133C4F846
S31500004920203101210023E2E7B14FD0F8001107F151
S31500004930190A4FF000090AE00B4601315745C4F841
S31500004940001104F8038084F8048101F0B480FF2983
S3150000495017F8018FF0D1D4F8083184F8FF90D4F815
S315000049600C2120469847D4F820310133C4F8203171
S3150000497001210023E2E79F4FD0F8001107F1160A44
S315000049804FF000090AE00B4601315745C4F8001103
S3150000499004F8038084F8048101F0D780FF2917F812
S315000049A0018FF0D1D4F8083184F8FF90D4F80C21A7
S315000049B020469847D4F820310133C4F8203101212C
S315000049C00023E2E78C4FD0F8001107F1130A4FF0ED
S315000049D000090AE00B4601315745C4F8001104F8F6
S315000049E0038084F8048101F0A980FF2917F8018F5C
S315000049F0F0D1D4F8083184F8FF90D4F80C21204681
S31500004A009847D4F820310133C4F82031012100231E
S31500004A10E2E77A4FD0F8001107F10F0A4FF00009CC
S31500004A200AE00B4601315745C4F8001104F803802B
S31500004A3084F8048101F09080FF2917F8018FF0D1E6
S31500004A40D4F8083184F8FF90D4F80C212046984712
S31500004A50D4F820310133C4F8203101210023E2E7E4
S31500004A60674FD0F8001107F11A0A4FF000090AE063
S31500004A700B4601315745C4F8001104F8038084F849
S31500004A80048101F01180FF2917F8018FF0D1D4F8C5
S31500004A90083184F8FF90D4F80C2120469847D4F8C2
S31500004AA020310133C4F8203101210023E2E7554FBC
S31500004AB0D0F8001107F1110A4FF000090AE00B4681
S31500004AC001315745C4F8001104F8038084F80481C5
S31500004AD001F0A580FF2917F8018FF0D1D4F808312D
S31500004AE084F8FF90D4F80C2120469847D4F820315A
S31500004AF00133C4F8203101210023E2E7424FD0F808
S31500004B00001107F1150A4FF000090AE00B460131C2
S31500004B105745C4F8001104F8038084F8048101F0B5
S31500004B207780FF2917F8018FF0D1D4F8083184F87F
S31500004B30FF90D4F80C2120469847D4F82031013351
S31500004B40C4F8203101210023E2E7304FD0F80011EC
S31500004B5007F1100A4FF000090AE00B4601315745EC
S31500004B60C4F8001104F8038084F8048101F0498038
S31500004B70FF2917F8018FF0D1D4F8083184F8FF9097
S31500004B80D4F80C2120469847D4F820310133C4F8D4
S31500004B90203101210023E2E71D4FD0F8001107F173
S31500004BA0120A4FF000090AE00B4601315745C4F8D6
S31500004BB0001104F8038084F8048101F01B80FF29AA
S31500004BC017F8018FF0D1D4F8083184F8FF90D4F8A3
S31500004BD00C2120469847D4F820310133C4F82031FF
S31500004BE001210023E2E700BF3F2C0200272C020030
S31500004BF00B2C0200F32B0200DF2B0200CF2B02004E
S31500004C00B32B02009F2B02009B2B0200872B020076
S31500004C10732B0200C94FD0F8001107F10D0A4FF0AF
S31500004C2000090AE00B4601315745C4F8001104F8A3
S31500004C30038084F8048100F0CF87FF2917F8018FDD
S31500004C40F0D1D4F8083184F8FF90D4F80C2120462E
S31500004C509847D4F820310133C4F8203101210023CC
S31500004C60E2E7B74FD0F8001107F1180A4FF0000934
S31500004C700AE00B4601315745C4F8001104F80380D9
S31500004C8084F8048100F07D87FF2917F8018FF0D1A1
S31500004C90D4F8083184F8FF90D4F80C2120469847C0
S31500004CA0D4F820310133C4F8203101210023E2E792
S31500004CB0A44FD0F8001107F1080A4FF000090AE0E6
S31500004CC00B4601315745C4F8001104F8038084F8F7
S31500004CD0048100F04F87FF2917F8018FF0D1D4F82F
S31500004CE0083184F8FF90D4F80C2120469847D4F870
S31500004CF020310133C4F8203101210023E2E7924F2D
S31500004D00D0F8001107F10B0A4FF000090AE00B4634
S31500004D1001315745C4F8001104F8038084F8048172
S31500004D2000F02187FF2917F8018FF0D1D4F8083158
S31500004D3084F8FF90D4F80C2120469847D4F8203107
S31500004D400133C4F8203101210023E2E7D0F8001135
S31500004D50FF2901F0C4824A1C7E23C4F80021635453
S31500004D6084F804313146AA68204601F071FF4DE50A
S31500004D703146926801F06CFF48E50022D0F8143104
S31500004D80C0F814216F680293002F01F0038506A96D
S31500004D90D0F810A10191904694460B4639781A60D6
S31500004DA0A1F11C000428C4F814315F60C3F808C0E0
S31500004DB0C3F80CA01A4608F1010803F1100340F2EB
S31500004DC04C86042901F0338602293DD1D7F808B074
S31500004DD09BF80030452B08BFDBF804B09BF8003089
S31500004DE01C3B042B30D8B8F1040F01F07986019AE8
S31500004DF0234602EB081C294632465D465646644663
S31500004E008B469246994603E0B8F1040F01F0678697
S31500004E101CE90F0084E80F00A4F1100323600023AF
S31500004E200CE94800C9F814414CF80C5C6D682B7805
S31500004E301C3B042B08F101080CF1100C04F11004C2
S31500004E40E2D94C4656465D46AA682046314601F0F0
S31500004E50FFFE3B78042B04BF049BC4F81031B8F165
S31500004E60000F0FD0019A474602EB08154FF02009B4
S31500004E70B04655F8086C013F002E01F07784103DCE
S31500004E80002FF6D10299C4F81411BFE431465268D6
S31500004E9001F0DEFE16F0040940F0EC852B4FD4F845
S31500004EA0001107F1020A0AE00B4601315745C4F822
S31500004EB0001104F8038084F8048100F0E785FF29D7
S31500004EC017F8018FF0D1D4F8083184F8FF90D4F8A0
S31500004ED00C2120469847D4F820310133C4F82031FC
S31500004EE001210023E2E71A4F5268314601F0B0FE75
S31500004EF007F1050AD4F800114FF000090AE00B4645
S31500004F0001315745C4F8001104F8038084F8048180
S31500004F1000F0B287FF2917F8018FF0D1D4F80831D5
S31500004F2084F8FF90D4F80C2120469847D4F8203115
S31500004F300133C4F8203101210023E2E7632B02008C
S31500004F403F2B0200332B0200272B0200FF2A020010
S31500004F50F72A02005168FDF729FE002801F06F8547
S31500004F604FF0000803782F2B40F0CA874368002BC8
S31500004F7000F0C687806808F101080028F2D16D6844
S31500004F800195002708F1FF33DFF8CCA30293B94659
S31500004F90C4F81C7120463146019A01F059FE029B65
S31500004FA0BB4228DDD4F80011DFF8B0B309E00B46A8
S31500004FB0D34501F10101C4F80011E55484F8045108
S31500004FC019D0FF291BF8015FF1D1D4F8083184F814
S31500004FD0FF90D4F80C2120469847D4F820310133AD
S31500004FE0C4F8203100230121D345C4F80011E5544B
S31500004FF084F80451E5D101374745C9D106E4D04FBD
S31500005000D0F8001107F11A0A4FF000090AE00B4622
S3150000501001315745C4F8001104F8038084F804816F
S3150000502000F00486FF2917F8018FF0D1D4F8083173
S3150000503084F8FF90D4F80C2120469847D4F8203104
S315000050400133C4F8203101210023E2E716F00406FB
S3150000505041F0AE819768D2F80490002F3FF4D6ABAA
S31500005060D0F80011B0460AE00B4601310136B742CE
S31500005070C4F80011E55484F804513FF4C7ABFF2986
S3150000508019F80650F0D1D4F8083184F8FF80D4F826
S315000050900C2120469847D4F820310133C4F820313A
S315000050A001210023E2E7A74F5268314601F0D0FD07
S315000050B007F1080AD4F800114FF000090AE00B4680
S315000050C001315745C4F8001104F8038084F80481BF
S315000050D000F0E586FF2917F8018FF0D1D4F80831E2
S315000050E084F8FF90D4F80C2120469847D4F8203154
S315000050F00133C4F8203101210023E2E7111DFDF739
S3150000510033FD002801F0138003782F2B01F0028075
S31500005110D4F810512B68C4F81031024631462046A7
S3150000512001F096FDC4F81051FFF770BB0023D0F8CC
S315000051301481C0F814315768720705D53B781BB93E
S31500005140BA68062A01F0BB833A462046314601F08A
S315000051507FFD94F804313C2B01F02F83D4F8003105
S31500005160FF2B01F02A82591C3C22C4F80011E2549C
S3150000517084F804213146AA68204601F069FD94F8B6
S3150000518004313E2B01F00B83D4F80031FF2B01F0E4
S315000051900182591C3E22C4F80011E25484F804210D
S315000051A0C4F81481FFF732BB0123C0F81831FFF7AA
S315000051B02DBBD2F8088098F80030372B00F05D87B9
S315000051C00123C4F81831FFF721BB576895683B786F
S315000051D0312B01F00380332B01F046803A463146ED
S315000051E002F098FB204631462A4602F0CDFBFFF737
S315000051F00DBB3146526802F08DFBFFF707BB5768BF
S31500005200002F40F0D486504DD0F8001105F1040867
S3150000521009E00B4601314545C4F80011E65484F80F
S3150000522004613FF4F3AAFF2915F8016FF1D1D4F810
S31500005230083184F8FF70D4F80C2120469847D4F83A
S3150000524020310133C4F8203101210023E3E73F4F29
S31500005250D0F8001107F10A0A4FF000090AE00B46E0
S3150000526001315745C4F8001104F8038084F804811D
S3150000527000F0E885FF2917F8018FF0D1D4F808313E
S3150000528084F8FF90D4F80C2120469847D4F82031B2
S315000052900133C4F8203101210023E2E752682C498A
S315000052A006A815F097FF06A815F0CDFF00283FF4D5
S315000052B0ADAA0DF11705D4F800112F184FF000080C
S315000052C009E00B460131BD42C4F80011E65484F8EA
S315000052D004613FF49BAAFF2915F8016FF1D1D4F8B8
S315000052E0083184F8FF80D4F80C2120469847D4F87A
S315000052F020310133C4F8203101210023E3E7D0F83F
S3150000530000111579FF2901F0AE804B1CC4F800315D
S31500005310655484F80451FFF779BA3146526801F0B2
S3150000532097FC20463146AA6801F092FCFFF76EBA58
S31500005330084FD0F8001107F10E0A4FF000091AE0E5
S31500005340532C0200672D0200F72C0200E72C020006
S31500005350142B0200D72C0200892C0200872C020095
S315000053600B4601315745C4F8001104F8038084F850
S31500005370048100F06085FF2917F8018FF0D1D4F879
S31500005380083184F8FF90D4F80C2120469847D4F8C9
S3150000539020310133C4F8203101210023E2E75268AD
S315000053A01178272940F0B4855268177C5FB1062F23
S315000053B041F27881072F06D1AA68117819B9916848
S315000053C0012901F0AD83D4F80011FF2901F05081C5
S315000053D04A1C2823C4F80021635484F804316A68FF
S315000053E02046314601F034FCD4F80031FF2B01F0A1
S315000053F01C81591C2922C4F80011E25484F80421A6
S315000054002B783C2B01F00682082F01F0E481204620
S315000054103146AA6801F01CFCFFF7F8B90123C0F871
S315000054201831FFF7F3B993681A78392A7FF4C8AEB2
S315000054309F683A783A2A7FF4C3AED5F804A0BA49F1
S31500005440DAF80420D3F804801068D7F80490BD6811
S31500005450FBF702F9002801F090822046B349FFF7D6
S315000054602DF9D8F8043043B120463146424602F0C1
S315000054708BFA20462021FDF75BFA4A462046314644
S3150000548001F0E6FB002D3FF4C1A9204631462A462D
S3150000549002F07AFAFFF7BAB9526812B1314601F052
S315000054A0D7FBAB68002B3FF4B1A9D4F80071FD2FF0
S315000054B000F2F986DFF888824FF0000A08F1020B45
S315000054C0394609E00B460131D845C4F80011E754C6
S315000054D084F8047100F0FD84FF2918F8017FF1D1EA
S315000054E0D4F8083184F8FFA0D4F80C212046984758
S315000054F0D4F820310133C4F8203101210023E3E739
S31500005500B2F90A30002B40F029866A688849536848
S315000055108B4200F0FB853146204601F099FBD4F81A
S315000055200031FF2B01F0F480591C2022C4F8001131
S31500005530E25484F80421B5F90830002B00F0EB841E
